:100000000C9434000C946E000C943E000C943E0052
:100010000C943E000C943E000C943E000C943E0068
:100020000C943E000C943E000C943E000C943E0058
:100030000C943E000C943E000C943E000C943E0048
:100040000C943E000C943E000C943E000C943E0038
:100050000C943E000C943E000C943E000C943E0028
:100060000C943E000C943E0011241FBECFEFD8E04C
:10007000DEBFCDBF0E945E000C9480000C94000097
:10008000F89483B7846083BF83B7816083BF78941B
:10009000889583B78E7F83BF089595E023E085B16F
:1000A000822785B93FEF49E688E1315040408040E2
:1000B000E1F700C00000915091F7089584B1836288
:1000C00084B9299A5A9AE9E6F0E0808182608083B7
:1000D000E89A0E944D000E944000FBCF1F920F92B1
:1000E0000FB60F9211248F939F9395B180E28927C9
:1000F00085B99F918F910F900FBE0F901F9018950B
:04010000F894FFCFA1
:00000001FF
