:100000000C9434000C943E000C943E000C943E0082
:100010000C943E000C943E000C943E000C943E0068
:100020000C943E000C943E000C943E000C943E0058
:100030000C943E000C943E000C943E000C943E0048
:100040000C943E000C943E000C943E000C943E0038
:100050000C943E000C943E000C943E000C943E0028
:100060000C943E000C943E0011241FBECFEFD8E04C
:10007000DEBFCDBF0E944A000C947D000C940000AE
:10008000F894A895E0E6F0E08081886180838DE0B7
:100090008083089584B1836084B9289A0E944000C7
:1000A00093E085B1892785B92FEF36E286E02150AC
:1000B00030408040E1F700C00000A8952FEF36E205
:1000C00086E0215030408040E1F700C00000A89554
:1000D0002FEF36E286E0215030408040E1F700C04B
:1000E0000000A8952FEF36E286E021503040804096
:0E00F000E1F700C00000A895D4CFF894FFCF30
:00000001FF
